S0170000507261637469636550726F6A6563742E737265630B
S11300000C9434000C943E000C943E000C943E007E
S11300100C943E000C943E000C943E000C943E0064
S11300200C943E000C943E000C943E000C943E0054
S11300300C943E000C943E000C943E000C943E0044
S11300400C943E000C943E000C943E000C943E0034
S11300500C943E000C943E000C943E000C943E0024
S11300600C943E000C943E0011241FBECFEFD8E048
S1130070DEBFCDBF0E9440000C946F000C940000C2
S1130080239A299A539AE0EBF0E08081836A808373
S11300901092B300E1EBF0E080818560808380E022
S11300A090E0A3EBB0E036E9E4EBF0E0199910C07E
S11300B00A968639910514F080E090E02FEF47EE20
S11300C053E0215040405040E1F700C0000002C01E
S11300D080E090E08C93232F281B2083E7CFF894B3
S10500E0FFCF4C
S9030000FC
