:100000000C9434000C9446000C9446000C9446006A
:100010000C9446000C9446000C9446000C94460048
:100020000C9446000C9446000C9446000C94460038
:100030000C9446000C9446000C9458000C94460016
:100040000C9446000C9446000C9446000C94460018
:100050000C9446000C9446000C9446000C94460008
:100060000C9446000C94460011241FBECFEFD8E03C
:10007000DEBFCDBF21E0A0E0B1E001C01D92A23003
:10008000B207E1F70E9448000C947A000C9400003B
:10009000239A84B5826084BD8CE987BDEEE6F0E0EA
:1000A000808182608083789485B5856085BDFFCF2F
:1000B0001F920F920FB60F9211248F939F938091EE
:1000C000000190910101019690930101809300013C
:1000D0008436910544F095B188E0892785B910925E
:1000E0000101109200019F918F910F900FBE0F9010
:0800F0001F901895F894FFCF52
:00000001FF
