:100000000C9434000C9446000C9446000C9446006A
:100010000C9446000C9446000C9446000C94460048
:100020000C9446000C9446000C9446000C94460038
:100030000C9446000C9446000C9446000C94460028
:100040000C94A2000C9446000C9446000C944600BC
:100050000C9446000C9446000C9446000C94460008
:100060000C9446000C94460011241FBECFEFD8E03C
:10007000DEBFCDBF21E0A0E0B1E001C01D92A43001
:10008000B207E1F70E9448000C94D0020C940000E3
:10009000569A84B5836884BD81E080936E0020E029
:1000A00030E048EC52E460910001709101018091D0
:1000B0000201909103010E94480120E030E04FE7E7
:1000C00053E40E943F020E94BA0167BD789485B54F
:1000D000856085BD20E030E048EC52E4609100018D
:1000E0007091010180910201909103010E943A02F6
:1000F000181644F4109200011092010110920201AE
:10010000109203012FEF89E698E121508040904042
:10011000E1F700C0000020E030E040EA51E46091E7
:1001200000017091010180910201909103010E94F0
:10013000DC006093000170930101809302019093B1
:100140000301C8CF1F920F920FB60F9211242F9365
:100150003F934F935F936F937F938F939F93AF934F
:10016000BF93EF93FF9320E030E048EC52E46091BE
:1001700000017091010180910201909103010E94A0
:10018000480120E030E04FE753E40E943F020E9424
:10019000BA0167BDFF91EF91BF91AF919F918F9190
:1001A0007F916F915F914F913F912F910F900FBE73
:1001B0000F901F9018955058BB27AA270E94F30054
:1001C0000C9400020E94F20138F00E94F90120F024
:1001D00039F49F3F19F426F40C94EF010EF4E095E6
:1001E000E7FB0C94E901E92F0E94110258F3BA17BA
:1001F000620773078407950720F079F4A6F50C943D
:1002000033020EF4E0950B2EBA2FA02D0B01B9018D
:1002100090010C01CA01A0011124FF27591B99F07C
:10022000593F50F4503E68F11A16F040A22F232F88
:10023000342F4427585FF3CF469537952795A795D8
:10024000F0405395C9F77EF41F16BA0B620B730B7F
:10025000840BBAF09150A1F0FF0FBB1F661F771FF0
:10026000881FC2F70EC0BA0F621F731F841F48F4A5
:10027000879577956795B795F7959E3F08F0B0CF2E
:100280009395880F08F09927EE0F97958795089515
:100290000E945C010C9400020E94F90158F00E9437
:1002A000F20140F029F45F3F29F00C94E90151116B
:1002B0000C9434020C94EF010E94110268F399230C
:1002C000B1F3552391F3951B550BBB27AA27621752
:1002D0007307840738F09F5F5F4F220F331F441F5F
:1002E000AA1FA9F335D00E2E3AF0E0E832D0915093
:1002F0005040E695001CCAF72BD0FE2F29D0660F80
:10030000771F881FBB1F261737074807AB07B0E8C2
:1003100009F0BB0B802DBF01FF2793585F4F3AF0C8
:100320009E3F510578F00C94E9010C9434025F3F34
:10033000E4F3983ED4F3869577956795B795F7954E
:100340009F5FC9F7880F911D9695879597F9089536
:10035000E1E0660F771F881FBB1F621773078407D2
:10036000BA0720F0621B730B840BBA0BEE1F88F7E1
:10037000E09508950E94190288F09F5798F0B92FD0
:100380009927B751B0F0E1F0660F771F881F991FCA
:100390001AF0BA95C9F714C0B13091F00E94330237
:1003A000B1E008950C943302672F782F8827B85F47
:1003B00039F0B93FCCF3869577956795B395D9F722
:1003C0003EF490958095709561957F4F8F4F9F4F2C
:1003D000089597F99F6780E870E060E008959FEFC7
:1003E00080EC089500240A941616170618060906CC
:1003F000089500240A94121613061406050608959B
:10040000092E0394000C11F4882352F0BB0F40F422
:10041000BF2B11F460FF04C06F5F7F4F8F4F9F4F62
:10042000089557FD9058440F551F59F05F3F71F0E4
:100430004795880F97FB991F61F09F3F79F087954B
:100440000895121613061406551FF2CF4695F1DFD4
:1004500008C0161617061806991FF1CF8695710564
:10046000610508940895E894BB2766277727CB0198
:1004700097F908950E94AC0208F48FEF08950E9446
:1004800052020C9400020E94F20138F00E94F9011D
:1004900020F0952311F00C94E9010C94EF01112444
:1004A0000C9434020E94110270F3959FC1F3950FD2
:1004B00050E0551F629FF001729FBB27F00DB11DE8
:1004C000639FAA27F00DB11DAA1F649F6627B00D78
:1004D000A11D661F829F2227B00DA11D621F739F61
:1004E000B00DA11D621F839FA00D611D221F749F6F
:1004F0003327A00D611D231F849F600D211D822FB6
:10050000762F6A2F11249F5750409AF0F1F08823DC
:100510004AF0EE0FFF1FBB1F661F771F881F915009
:100520005040A9F79E3F510580F00C94E9010C94CE
:1005300034025F3FE4F3983ED4F386957795679550
:10054000B795F795E7959F5FC1F7FE2B880F911D33
:100550009695879597F90895990F0008550FAA0B5E
:10056000E0E8FEEF16161706E807F907C0F01216C6
:100570001306E407F50798F0621B730B840B950BC9
:1005800039F40A2661F0232B242B252B21F408951E
:100590000A2609F4A140A6958FEF811D811D0895BB
:0405A000F894FFCFFD
:00000001FF
