:100000000C9434000C9451000C9451000C94510049
:100010000C9451000C9451000C9451000C9451001C
:100020000C9451000C9451000C9451000C9451000C
:100030000C9451000C9451000C9451000C945100FC
:100040000C9451000C9451000C9451000C945100EC
:100050000C94CD000C9451000C9451000C94510060
:100060000C9451000C94510011241FBECFEFD8E026
:10007000DEBFCDBF11E0A0E0B1E0E8E6F2E002C0F3
:1000800005900D92A631B107D9F721E0A6E1B1E0C4
:1000900001C01D92AA39B207E1F70E9484000C94B6
:1000A00032010C94000090911801E92FF0E0E65E17
:1000B000FE4F80839F5F1AF090931801089510926D
:1000C000180108951F93CF93DF93EC0110E007C050
:1000D000FE01E80FF91F80810E9453001F5F812FEE
:1000E00090E0FE0101900020E9F73197EC1BFD0B39
:1000F0008E179F0768F38091C00085FD1092C6009F
:10010000DF91CF911F910895CF93DF9300D000D05E
:100110001F92CDB7DEB7239A1092C50087E6809371
:10012000C400E1ECF0E0808188608083A2ECB0E064
:100130008C9186608C93808180648083789418E0B1
:1001400080E091E00E94620042E050E0BE016F5FFB
:100150007F4F80911601909117010E94F200CE010D
:1001600001960E94620080911601909117010196FC
:10017000909317018093160182E191E00E94620042
:100180002FEF83ED90E3215080409040E1F700C0D5
:10019000000085B1812785B9D3CF1F920F920FB68A
:1001A0000F9211248F93EF93FF93E09119018091A7
:1001B0001801E81779F0F0E0E65EFE4F8081809349
:1001C000C600809119018F5F1AF08093190102C057
:1001D00010921901FF91EF918F910F900FBE0F9028
:1001E0001F9018954532510520F4423010F00C94C0
:1001F000FD00FB011082CB010895BB274A3031F48A
:10020000992322F4BDE2909581959F4F0C940901AA
:10021000BB27FB015527AA27880F991FAA1FA417E0
:1002200010F0A41B83955051B9F7A05DAA3308F0D4
:10023000A95DA193009779F7B111B1931192CB0108
:100240000C942201DC01FC01672F71917723E1F707
:10025000329704C07C916D9370836291AE17BF0793
:08026000C8F30895F894FFCFE4
:100268004C6F6F6B2120492063616E20636F756E40
:0602780074210A0D0000D4
:00000001FF
