:100000000C9434000C943E000C943E000C943E0082
:100010000C943E000C943E000C943E000C943E0068
:100020000C943E000C943E000C943E000C943E0058
:100030000C943E000C943E000C943E000C943E0048
:100040000C943E000C943E000C943E000C943E0038
:100050000C943E000C943E000C943E000C943E0028
:100060000C943E000C943E0011241FBECFEFD8E04C
:10007000DEBFCDBF0E9440000C9469000C940000CC
:1000800084B18C6084B998E085B18C6085B92FEF1C
:1000900033ED80E3215030408040E1F700C00000A4
:1000A00085B1837F85B92FEF33ED80E32150304058
:1000B0008040E1F700C0000085B1892785B92FEFA6
:1000C00033ED80E3215030408040E1F700C0000074
:0600D000DBCFF894FFCF26
:00000001FF
